{
    "_format": "hh-sol-artifact-1",
    "contractName": "LendingProtocol",
    "sourceName": "contracts/LendingProtocol.sol",
    "abi": [
        {
            "inputs": [
                {
                    "internalType": "address",
                    "name": "_collateral",
                    "type": "address"
                },
                {
                    "internalType": "address",
                    "name": "_loan",
                    "type": "address"
                }
            ],
            "stateMutability": "nonpayable",
            "type": "constructor"
        },
        {
            "inputs": [],
            "name": "COLLATERAL_RATIO",
            "outputs": [
                {
                    "internalType": "uint256",
                    "name": "",
                    "type": "uint256"
                }
            ],
            "stateMutability": "view",
            "type": "function"
        },
        {
            "inputs": [],
            "name": "INTEREST_RATE",
            "outputs": [
                {
                    "internalType": "uint256",
                    "name": "",
                    "type": "uint256"
                }
            ],
            "stateMutability": "view",
            "type": "function"
        },
        {
            "inputs": [
                {
                    "internalType": "uint256",
                    "name": "amount",
                    "type": "uint256"
                }
            ],
            "name": "borrow",
            "outputs": [],
            "stateMutability": "nonpayable",
            "type": "function"
        },
        {
            "inputs": [],
            "name": "collateralToken",
            "outputs": [
                {
                    "internalType": "contract CollateralToken",
                    "name": "",
                    "type": "address"
                }
            ],
            "stateMutability": "view",
            "type": "function"
        },
        {
            "inputs": [
                {
                    "internalType": "uint256",
                    "name": "amount",
                    "type": "uint256"
                }
            ],
            "name": "depositCollateral",
            "outputs": [],
            "stateMutability": "nonpayable",
            "type": "function"
        },
        {
            "inputs": [
                {
                    "internalType": "address",
                    "name": "userAddress",
                    "type": "address"
                }
            ],
            "name": "getUserData",
            "outputs": [
                {
                    "internalType": "uint256",
                    "name": "collateral",
                    "type": "uint256"
                },
                {
                    "internalType": "uint256",
                    "name": "debt",
                    "type": "uint256"
                },
                {
                    "internalType": "uint256",
                    "name": "interest",
                    "type": "uint256"
                }
            ],
            "stateMutability": "view",
            "type": "function"
        },
        {
            "inputs": [],
            "name": "loanToken",
            "outputs": [
                {
                    "internalType": "contract LoanToken",
                    "name": "",
                    "type": "address"
                }
            ],
            "stateMutability": "view",
            "type": "function"
        },
        {
            "inputs": [],
            "name": "owner",
            "outputs": [
                {
                    "internalType": "address",
                    "name": "",
                    "type": "address"
                }
            ],
            "stateMutability": "view",
            "type": "function"
        },
        {
            "inputs": [
                {
                    "internalType": "address",
                    "name": "",
                    "type": "address"
                }
            ],
            "name": "positions",
            "outputs": [
                {
                    "internalType": "uint256",
                    "name": "collateralAmount",
                    "type": "uint256"
                },
                {
                    "internalType": "uint256",
                    "name": "debtAmount",
                    "type": "uint256"
                },
                {
                    "internalType": "uint256",
                    "name": "interestAccrued",
                    "type": "uint256"
                }
            ],
            "stateMutability": "view",
            "type": "function"
        },
        {
            "inputs": [],
            "name": "repay",
            "outputs": [],
            "stateMutability": "nonpayable",
            "type": "function"
        },
        {
            "inputs": [],
            "name": "withdrawCollateral",
            "outputs": [],
            "stateMutability": "nonpayable",
            "type": "function"
        }
    ],
    "bytecode": "0x60806040523480156200001157600080fd5b50604051620011a4380380620011a483398181016040528101906200003791906200016b565b816000806101000a81548173ffffffffffffffffffffffffffffffffffffffff021916908373ffffffffffffffffffffffffffffffffffffffff16021790555080600160006101000a81548173ffffffffffffffffffffffffffffffffffffffff021916908373ffffffffffffffffffffffffffffffffffffffff16021790555033600260006101000a81548173ffffffffffffffffffffffffffffffffffffffff021916908373ffffffffffffffffffffffffffffffffffffffff1602179055505050620001b2565b600080fd5b600073ffffffffffffffffffffffffffffffffffffffff82169050919050565b6000620001338262000106565b9050919050565b620001458162000126565b81146200015157600080fd5b50565b60008151905062000165816200013a565b92915050565b6000806040838503121562000185576200018462000101565b5b6000620001958582860162000154565b9250506020620001a88582860162000154565b9150509250929050565b610fe280620001c26000396000f3fe608060405234801561001057600080fd5b50600436106100a95760003560e01c80638da5cb5b116100715780638da5cb5b14610130578063b2016bd41461014e578063bad4a01f1461016c578063c5ebeaec14610188578063d9e69a05146101a4578063ffc9896b146101c2576100a9565b806306d37817146100ae578063402d8883146100cc57806355f57510146100d657806359c153be146101085780635b72a33a14610112575b600080fd5b6100b66101f4565b6040516100c39190610994565b60405180910390f35b6100d461021a565b005b6100f060048036038101906100eb91906109f2565b610377565b6040516100ff93929190610a38565b60405180910390f35b6101106103a1565b005b61011a610524565b6040516101279190610a6f565b60405180910390f35b610138610529565b6040516101459190610a99565b60405180910390f35b61015661054f565b6040516101639190610ad5565b60405180910390f35b61018660048036038101906101819190610b1c565b610573565b005b6101a2600480360381019061019d9190610b1c565b6106b3565b005b6101ac610883565b6040516101b99190610a6f565b60405180910390f35b6101dc60048036038101906101d791906109f2565b610888565b6040516101eb93929190610a38565b60405180910390f35b600160009054906101000a900473ffffffffffffffffffffffffffffffffffffffff1681565b6000600360003373ffffffffffffffffffffffffffffffffffffffff1673ffffffffffffffffffffffffffffffffffffffff168152602001908152602001600020905060008160010154116102a4576040517f08c379a000000000000000000000000000000000000000000000000000000000815260040161029b90610ba6565b60405180910390fd5b6000816002015482600101546102ba9190610bf5565b9050600160009054906101000a900473ffffffffffffffffffffffffffffffffffffffff1673ffffffffffffffffffffffffffffffffffffffff166323b872dd3330846040518463ffffffff1660e01b815260040161031b93929190610c29565b6020604051808303816000875af115801561033a573d6000803e3d6000fd5b505050506040513d601f19601f8201168201806040525081019061035e9190610c98565b5060008260010181905550600082600201819055505050565b60036020528060005260406000206000915090508060000154908060010154908060020154905083565b6000600360003373ffffffffffffffffffffffffffffffffffffffff1673ffffffffffffffffffffffffffffffffffffffff1681526020019081526020016000209050600081600101541461042b576040517f08c379a000000000000000000000000000000000000000000000000000000000815260040161042290610d11565b60405180910390fd5b60008160000154905060008111610477576040517f08c379a000000000000000000000000000000000000000000000000000000000815260040161046e90610d7d565b60405180910390fd5b6000826000018190555060008054906101000a900473ffffffffffffffffffffffffffffffffffffffff1673ffffffffffffffffffffffffffffffffffffffff1663a9059cbb33836040518363ffffffff1660e01b81526004016104dc929190610d9d565b6020604051808303816000875af11580156104fb573d6000803e3d6000fd5b505050506040513d601f19601f8201168201806040525081019061051f9190610c98565b505050565b600581565b600260009054906101000a900473ffffffffffffffffffffffffffffffffffffffff1681565b60008054906101000a900473ffffffffffffffffffffffffffffffffffffffff1681565b600081116105b6576040517f08c379a00000000000000000000000000000000000000000000000000000000081526004016105ad90610e12565b60405180910390fd5b60008054906101000a900473ffffffffffffffffffffffffffffffffffffffff1673ffffffffffffffffffffffffffffffffffffffff166323b872dd3330846040518463ffffffff1660e01b815260040161061393929190610c29565b6020604051808303816000875af1158015610632573d6000803e3d6000fd5b505050506040513d601f19601f820116820180604052508101906106569190610c98565b5080600360003373ffffffffffffffffffffffffffffffffffffffff1673ffffffffffffffffffffffffffffffffffffffff16815260200190815260200160002060000160008282546106a99190610bf5565b9250508190555050565b6000600360003373ffffffffffffffffffffffffffffffffffffffff1673ffffffffffffffffffffffffffffffffffffffff1681526020019081526020016000209050600081600001541161073d576040517f08c379a000000000000000000000000000000000000000000000000000000000815260040161073490610e7e565b60405180910390fd5b60006096606483600001546107529190610e9e565b61075c9190610f0f565b9050808311156107a1576040517f08c379a000000000000000000000000000000000000000000000000000000000815260040161079890610f8c565b60405180910390fd5b828260010160008282546107b59190610bf5565b9250508190555060646005846107cb9190610e9e565b6107d59190610f0f565b8260020160008282546107e89190610bf5565b92505081905550600160009054906101000a900473ffffffffffffffffffffffffffffffffffffffff1673ffffffffffffffffffffffffffffffffffffffff166340c10f1933856040518363ffffffff1660e01b815260040161084c929190610d9d565b600060405180830381600087803b15801561086657600080fd5b505af115801561087a573d6000803e3d6000fd5b50505050505050565b609681565b600080600080600360008673ffffffffffffffffffffffffffffffffffffffff1673ffffffffffffffffffffffffffffffffffffffff16815260200190815260200160002060405180606001604052908160008201548152602001600182015481526020016002820154815250509050806000015181602001518260400151935093509350509193909250565b600073ffffffffffffffffffffffffffffffffffffffff82169050919050565b6000819050919050565b600061095a61095561095084610915565b610935565b610915565b9050919050565b600061096c8261093f565b9050919050565b600061097e82610961565b9050919050565b61098e81610973565b82525050565b60006020820190506109a96000830184610985565b92915050565b600080fd5b60006109bf82610915565b9050919050565b6109cf816109b4565b81146109da57600080fd5b50565b6000813590506109ec816109c6565b92915050565b600060208284031215610a0857610a076109af565b5b6000610a16848285016109dd565b91505092915050565b6000819050919050565b610a3281610a1f565b82525050565b6000606082019050610a4d6000830186610a29565b610a5a6020830185610a29565b610a676040830184610a29565b949350505050565b6000602082019050610a846000830184610a29565b92915050565b610a93816109b4565b82525050565b6000602082019050610aae6000830184610a8a565b92915050565b6000610abf82610961565b9050919050565b610acf81610ab4565b82525050565b6000602082019050610aea6000830184610ac6565b92915050565b610af981610a1f565b8114610b0457600080fd5b50565b600081359050610b1681610af0565b92915050565b600060208284031215610b3257610b316109af565b5b6000610b4084828501610b07565b91505092915050565b600082825260208201905092915050565b7f4e6f206861792064657564610000000000000000000000000000000000000000600082015250565b6000610b90600c83610b49565b9150610b9b82610b5a565b602082019050919050565b60006020820190508181036000830152610bbf81610b83565b9050919050565b7f4e487b7100000000000000000000000000000000000000000000000000000000600052601160045260246000fd5b6000610c0082610a1f565b9150610c0b83610a1f565b9250828201905080821115610c2357610c22610bc6565b5b92915050565b6000606082019050610c3e6000830186610a8a565b610c4b6020830185610a8a565b610c586040830184610a29565b949350505050565b60008115159050919050565b610c7581610c60565b8114610c8057600080fd5b50565b600081519050610c9281610c6c565b92915050565b600060208284031215610cae57610cad6109af565b5b6000610cbc84828501610c83565b91505092915050565b7f5072696d65726f2070616761206c612064657564610000000000000000000000600082015250565b6000610cfb601583610b49565b9150610d0682610cc5565b602082019050919050565b60006020820190508181036000830152610d2a81610cee565b9050919050565b7f4e61646120706172612072657469726172000000000000000000000000000000600082015250565b6000610d67601183610b49565b9150610d7282610d31565b602082019050919050565b60006020820190508181036000830152610d9681610d5a565b9050919050565b6000604082019050610db26000830185610a8a565b610dbf6020830184610a29565b9392505050565b7f43616e746964616420696e76616c696461000000000000000000000000000000600082015250565b6000610dfc601183610b49565b9150610e0782610dc6565b602082019050919050565b60006020820190508181036000830152610e2b81610def565b9050919050565b7f4e6f2068617920636f6c61746572616c00000000000000000000000000000000600082015250565b6000610e68601083610b49565b9150610e7382610e32565b602082019050919050565b60006020820190508181036000830152610e9781610e5b565b9050919050565b6000610ea982610a1f565b9150610eb483610a1f565b9250828202610ec281610a1f565b91508282048414831517610ed957610ed8610bc6565b5b5092915050565b7f4e487b7100000000000000000000000000000000000000000000000000000000600052601260045260246000fd5b6000610f1a82610a1f565b9150610f2583610a1f565b925082610f3557610f34610ee0565b5b828204905092915050565b7f45786365646520656c206c696d697465206465207072657374616d6f00000000600082015250565b6000610f76601c83610b49565b9150610f8182610f40565b602082019050919050565b60006020820190508181036000830152610fa581610f69565b905091905056fea2646970667358221220416c944e243d8b3385574ae5587215e9337b557c713e8785b34cee1eb11059c764736f6c63430008140033",
    "linkReferences": {},
    "deployedLinkReferences": {}
}